{
  "_format": "hh-sol-artifact-1",
  "contractName": "SimpleAMM",
  "sourceName": "contracts/SimpleAMM.sol",
  "abi": [
    {
      "inputs": [
        {
          "internalType": "address",
          "name": "_token1",
          "type": "address"
        },
        {
          "internalType": "address",
          "name": "_token2",
          "type": "address"
        }
      ],
      "stateMutability": "nonpayable",
      "type": "constructor"
    },
    {
      "inputs": [
        {
          "internalType": "uint256",
          "name": "amount1",
          "type": "uint256"
        },
        {
          "internalType": "uint256",
          "name": "amount2",
          "type": "uint256"
        }
      ],
      "name": "addLiquidity",
      "outputs": [],
      "stateMutability": "nonpayable",
      "type": "function"
    },
    {
      "inputs": [
        {
          "internalType": "uint256",
          "name": "amountIn",
          "type": "uint256"
        },
        {
          "internalType": "uint256",
          "name": "reserveIn",
          "type": "uint256"
        },
        {
          "internalType": "uint256",
          "name": "reserveOut",
          "type": "uint256"
        }
      ],
      "name": "getAmountOut",
      "outputs": [
        {
          "internalType": "uint256",
          "name": "",
          "type": "uint256"
        }
      ],
      "stateMutability": "pure",
      "type": "function"
    },
    {
      "inputs": [],
      "name": "reserve1",
      "outputs": [
        {
          "internalType": "uint256",
          "name": "",
          "type": "uint256"
        }
      ],
      "stateMutability": "view",
      "type": "function"
    },
    {
      "inputs": [],
      "name": "reserve2",
      "outputs": [
        {
          "internalType": "uint256",
          "name": "",
          "type": "uint256"
        }
      ],
      "stateMutability": "view",
      "type": "function"
    },
    {
      "inputs": [
        {
          "internalType": "uint256",
          "name": "amountAIn",
          "type": "uint256"
        }
      ],
      "name": "swapAForB",
      "outputs": [],
      "stateMutability": "nonpayable",
      "type": "function"
    },
    {
      "inputs": [
        {
          "internalType": "uint256",
          "name": "amountBIn",
          "type": "uint256"
        }
      ],
      "name": "swapBForA",
      "outputs": [],
      "stateMutability": "nonpayable",
      "type": "function"
    },
    {
      "inputs": [],
      "name": "token1",
      "outputs": [
        {
          "internalType": "contract IERC20",
          "name": "",
          "type": "address"
        }
      ],
      "stateMutability": "view",
      "type": "function"
    },
    {
      "inputs": [],
      "name": "token2",
      "outputs": [
        {
          "internalType": "contract IERC20",
          "name": "",
          "type": "address"
        }
      ],
      "stateMutability": "view",
      "type": "function"
    }
  ],
  "bytecode": "0x608060405234801561001057600080fd5b50604051610d4a380380610d4a8339818101604052810190610032919061011d565b816000806101000a81548173ffffffffffffffffffffffffffffffffffffffff021916908373ffffffffffffffffffffffffffffffffffffffff16021790555080600160006101000a81548173ffffffffffffffffffffffffffffffffffffffff021916908373ffffffffffffffffffffffffffffffffffffffff160217905550505061015d565b600080fd5b600073ffffffffffffffffffffffffffffffffffffffff82169050919050565b60006100ea826100bf565b9050919050565b6100fa816100df565b811461010557600080fd5b50565b600081519050610117816100f1565b92915050565b60008060408385031215610134576101336100ba565b5b600061014285828601610108565b925050602061015385828601610108565b9150509250929050565b610bde8061016c6000396000f3fe608060405234801561001057600080fd5b50600436106100885760003560e01c80635c0b9a2b1161005b5780635c0b9a2b146101155780639cd441da14610133578063d21220a71461014f578063e619a4981461016d57610088565b8063031020911461008d578063054d50d4146100a957806325be124e146100d95780635a76f25e146100f7575b600080fd5b6100a760048036038101906100a29190610788565b610189565b005b6100c360048036038101906100be91906107b5565b610357565b6040516100d09190610817565b60405180910390f35b6100e16103af565b6040516100ee91906108b1565b60405180910390f35b6100ff6103d5565b60405161010c9190610817565b60405180910390f35b61011d6103db565b60405161012a9190610817565b60405180910390f35b61014d600480360381019061014891906108cc565b6103e1565b005b61015761055b565b60405161016491906108b1565b60405180910390f35b61018760048036038101906101829190610788565b61057f565b005b600061019a82600254600354610357565b9050600081116101df576040517f08c379a00000000000000000000000000000000000000000000000000000000081526004016101d690610969565b60405180910390fd5b60008054906101000a900473ffffffffffffffffffffffffffffffffffffffff1673ffffffffffffffffffffffffffffffffffffffff166323b872dd3330856040518463ffffffff1660e01b815260040161023c939291906109aa565b6020604051808303816000875af115801561025b573d6000803e3d6000fd5b505050506040513d601f19601f8201168201806040525081019061027f9190610a19565b50600160009054906101000a900473ffffffffffffffffffffffffffffffffffffffff1673ffffffffffffffffffffffffffffffffffffffff1663a9059cbb33836040518363ffffffff1660e01b81526004016102dd929190610a46565b6020604051808303816000875af11580156102fc573d6000803e3d6000fd5b505050506040513d601f19601f820116820180604052508101906103209190610a19565b5081600260008282546103339190610a9e565b92505081905550806003600082825461034c9190610ad2565b925050819055505050565b6000806103e86103e58661036b9190610b06565b6103759190610b77565b9050600083826103859190610b06565b9050600082866103959190610a9e565b905080826103a39190610b77565b93505050509392505050565b600160009054906101000a900473ffffffffffffffffffffffffffffffffffffffff1681565b60025481565b60035481565b60008054906101000a900473ffffffffffffffffffffffffffffffffffffffff1673ffffffffffffffffffffffffffffffffffffffff166323b872dd3330856040518463ffffffff1660e01b815260040161043e939291906109aa565b6020604051808303816000875af115801561045d573d6000803e3d6000fd5b505050506040513d601f19601f820116820180604052508101906104819190610a19565b50600160009054906101000a900473ffffffffffffffffffffffffffffffffffffffff1673ffffffffffffffffffffffffffffffffffffffff166323b872dd3330846040518463ffffffff1660e01b81526004016104e1939291906109aa565b6020604051808303816000875af1158015610500573d6000803e3d6000fd5b505050506040513d601f19601f820116820180604052508101906105249190610a19565b5081600260008282546105379190610a9e565b9250508190555080600360008282546105509190610a9e565b925050819055505050565b60008054906101000a900473ffffffffffffffffffffffffffffffffffffffff1681565b600061059082600354600254610357565b9050600081116105d5576040517f08c379a00000000000000000000000000000000000000000000000000000000081526004016105cc90610969565b60405180910390fd5b600160009054906101000a900473ffffffffffffffffffffffffffffffffffffffff1673ffffffffffffffffffffffffffffffffffffffff166323b872dd3330856040518463ffffffff1660e01b8152600401610634939291906109aa565b6020604051808303816000875af1158015610653573d6000803e3d6000fd5b505050506040513d601f19601f820116820180604052508101906106779190610a19565b5060008054906101000a900473ffffffffffffffffffffffffffffffffffffffff1673ffffffffffffffffffffffffffffffffffffffff1663a9059cbb33836040518363ffffffff1660e01b81526004016106d3929190610a46565b6020604051808303816000875af11580156106f2573d6000803e3d6000fd5b505050506040513d601f19601f820116820180604052508101906107169190610a19565b5081600360008282546107299190610a9e565b9250508190555080600260008282546107429190610ad2565b925050819055505050565b600080fd5b6000819050919050565b61076581610752565b811461077057600080fd5b50565b6000813590506107828161075c565b92915050565b60006020828403121561079e5761079d61074d565b5b60006107ac84828501610773565b91505092915050565b6000806000606084860312156107ce576107cd61074d565b5b60006107dc86828701610773565b93505060206107ed86828701610773565b92505060406107fe86828701610773565b9150509250925092565b61081181610752565b82525050565b600060208201905061082c6000830184610808565b92915050565b600073ffffffffffffffffffffffffffffffffffffffff82169050919050565b6000819050919050565b600061087761087261086d84610832565b610852565b610832565b9050919050565b60006108898261085c565b9050919050565b600061089b8261087e565b9050919050565b6108ab81610890565b82525050565b60006020820190506108c660008301846108a2565b92915050565b600080604083850312156108e3576108e261074d565b5b60006108f185828601610773565b925050602061090285828601610773565b9150509250929050565b600082825260208201905092915050565b7f496e73756666696369656e74206f757470757400000000000000000000000000600082015250565b600061095360138361090c565b915061095e8261091d565b602082019050919050565b6000602082019050818103600083015261098281610946565b9050919050565b600061099482610832565b9050919050565b6109a481610989565b82525050565b60006060820190506109bf600083018661099b565b6109cc602083018561099b565b6109d96040830184610808565b949350505050565b60008115159050919050565b6109f6816109e1565b8114610a0157600080fd5b50565b600081519050610a13816109ed565b92915050565b600060208284031215610a2f57610a2e61074d565b5b6000610a3d84828501610a04565b91505092915050565b6000604082019050610a5b600083018561099b565b610a686020830184610808565b9392505050565b7f4e487b7100000000000000000000000000000000000000000000000000000000600052601160045260246000fd5b6000610aa982610752565b9150610ab483610752565b9250828201905080821115610acc57610acb610a6f565b5b92915050565b6000610add82610752565b9150610ae883610752565b9250828203905081811115610b0057610aff610a6f565b5b92915050565b6000610b1182610752565b9150610b1c83610752565b9250828202610b2a81610752565b91508282048414831517610b4157610b40610a6f565b5b5092915050565b7f4e487b7100000000000000000000000000000000000000000000000000000000600052601260045260246000fd5b6000610b8282610752565b9150610b8d83610752565b925082610b9d57610b9c610b48565b5b82820490509291505056fea264697066735822122015917e840e5370b681a57a9e46ecf56faf9f08f7cbeb593796da884a0ebf1aff64736f6c634300081c0033",
  "linkReferences": {},
  "deployedLinkReferences": {}
}