{
  "_format": "hh-sol-artifact-1",
  "contractName": "SimpleAMM",
  "sourceName": "contracts/SimpleAMM.sol",
  "abi": [
    {
      "inputs": [
        {
          "internalType": "address",
          "name": "_token1",
          "type": "address"
        },
        {
          "internalType": "address",
          "name": "_token2",
          "type": "address"
        }
      ],
      "stateMutability": "nonpayable",
      "type": "constructor"
    },
    {
      "inputs": [
        {
          "internalType": "uint256",
          "name": "amount1",
          "type": "uint256"
        },
        {
          "internalType": "uint256",
          "name": "amount2",
          "type": "uint256"
        }
      ],
      "name": "addLiquidity",
      "outputs": [],
      "stateMutability": "nonpayable",
      "type": "function"
    },
    {
      "inputs": [
        {
          "internalType": "uint256",
          "name": "amountIn",
          "type": "uint256"
        },
        {
          "internalType": "uint256",
          "name": "reserveIn",
          "type": "uint256"
        },
        {
          "internalType": "uint256",
          "name": "reserveOut",
          "type": "uint256"
        }
      ],
      "name": "getAmountOut",
      "outputs": [
        {
          "internalType": "uint256",
          "name": "",
          "type": "uint256"
        }
      ],
      "stateMutability": "pure",
      "type": "function"
    },
    {
      "inputs": [],
      "name": "reserve1",
      "outputs": [
        {
          "internalType": "uint256",
          "name": "",
          "type": "uint256"
        }
      ],
      "stateMutability": "view",
      "type": "function"
    },
    {
      "inputs": [],
      "name": "reserve2",
      "outputs": [
        {
          "internalType": "uint256",
          "name": "",
          "type": "uint256"
        }
      ],
      "stateMutability": "view",
      "type": "function"
    },
    {
      "inputs": [
        {
          "internalType": "uint256",
          "name": "amountAIn",
          "type": "uint256"
        }
      ],
      "name": "swapAForB",
      "outputs": [],
      "stateMutability": "nonpayable",
      "type": "function"
    },
    {
      "inputs": [],
      "name": "token1",
      "outputs": [
        {
          "internalType": "contract IERC20",
          "name": "",
          "type": "address"
        }
      ],
      "stateMutability": "view",
      "type": "function"
    },
    {
      "inputs": [],
      "name": "token2",
      "outputs": [
        {
          "internalType": "contract IERC20",
          "name": "",
          "type": "address"
        }
      ],
      "stateMutability": "view",
      "type": "function"
    }
  ],
  "bytecode": "0x608060405234801561001057600080fd5b50604051610b55380380610b558339818101604052810190610032919061011d565b816000806101000a81548173ffffffffffffffffffffffffffffffffffffffff021916908373ffffffffffffffffffffffffffffffffffffffff16021790555080600160006101000a81548173ffffffffffffffffffffffffffffffffffffffff021916908373ffffffffffffffffffffffffffffffffffffffff160217905550505061015d565b600080fd5b600073ffffffffffffffffffffffffffffffffffffffff82169050919050565b60006100ea826100bf565b9050919050565b6100fa816100df565b811461010557600080fd5b50565b600081519050610117816100f1565b92915050565b60008060408385031215610134576101336100ba565b5b600061014285828601610108565b925050602061015385828601610108565b9150509250929050565b6109e98061016c6000396000f3fe608060405234801561001057600080fd5b506004361061007d5760003560e01c80635a76f25e1161005b5780635a76f25e146100ec5780635c0b9a2b1461010a5780639cd441da14610128578063d21220a7146101445761007d565b80630310209114610082578063054d50d41461009e57806325be124e146100ce575b600080fd5b61009c60048036038101906100979190610593565b610162565b005b6100b860048036038101906100b391906105c0565b610330565b6040516100c59190610622565b60405180910390f35b6100d6610388565b6040516100e391906106bc565b60405180910390f35b6100f46103ae565b6040516101019190610622565b60405180910390f35b6101126103b4565b60405161011f9190610622565b60405180910390f35b610142600480360381019061013d91906106d7565b6103ba565b005b61014c610534565b60405161015991906106bc565b60405180910390f35b600061017382600254600354610330565b9050600081116101b8576040517f08c379a00000000000000000000000000000000000000000000000000000000081526004016101af90610774565b60405180910390fd5b60008054906101000a900473ffffffffffffffffffffffffffffffffffffffff1673ffffffffffffffffffffffffffffffffffffffff166323b872dd3330856040518463ffffffff1660e01b8152600401610215939291906107b5565b6020604051808303816000875af1158015610234573d6000803e3d6000fd5b505050506040513d601f19601f820116820180604052508101906102589190610824565b50600160009054906101000a900473ffffffffffffffffffffffffffffffffffffffff1673ffffffffffffffffffffffffffffffffffffffff1663a9059cbb33836040518363ffffffff1660e01b81526004016102b6929190610851565b6020604051808303816000875af11580156102d5573d6000803e3d6000fd5b505050506040513d601f19601f820116820180604052508101906102f99190610824565b50816002600082825461030c91906108a9565b92505081905550806003600082825461032591906108dd565b925050819055505050565b6000806103e86103e5866103449190610911565b61034e9190610982565b90506000838261035e9190610911565b90506000828661036e91906108a9565b9050808261037c9190610982565b93505050509392505050565b600160009054906101000a900473ffffffffffffffffffffffffffffffffffffffff1681565b60025481565b60035481565b60008054906101000a900473ffffffffffffffffffffffffffffffffffffffff1673ffffffffffffffffffffffffffffffffffffffff166323b872dd3330856040518463ffffffff1660e01b8152600401610417939291906107b5565b6020604051808303816000875af1158015610436573d6000803e3d6000fd5b505050506040513d601f19601f8201168201806040525081019061045a9190610824565b50600160009054906101000a900473ffffffffffffffffffffffffffffffffffffffff1673ffffffffffffffffffffffffffffffffffffffff166323b872dd3330846040518463ffffffff1660e01b81526004016104ba939291906107b5565b6020604051808303816000875af11580156104d9573d6000803e3d6000fd5b505050506040513d601f19601f820116820180604052508101906104fd9190610824565b50816002600082825461051091906108a9565b92505081905550806003600082825461052991906108a9565b925050819055505050565b60008054906101000a900473ffffffffffffffffffffffffffffffffffffffff1681565b600080fd5b6000819050919050565b6105708161055d565b811461057b57600080fd5b50565b60008135905061058d81610567565b92915050565b6000602082840312156105a9576105a8610558565b5b60006105b78482850161057e565b91505092915050565b6000806000606084860312156105d9576105d8610558565b5b60006105e78682870161057e565b93505060206105f88682870161057e565b92505060406106098682870161057e565b9150509250925092565b61061c8161055d565b82525050565b60006020820190506106376000830184610613565b92915050565b600073ffffffffffffffffffffffffffffffffffffffff82169050919050565b6000819050919050565b600061068261067d6106788461063d565b61065d565b61063d565b9050919050565b600061069482610667565b9050919050565b60006106a682610689565b9050919050565b6106b68161069b565b82525050565b60006020820190506106d160008301846106ad565b92915050565b600080604083850312156106ee576106ed610558565b5b60006106fc8582860161057e565b925050602061070d8582860161057e565b9150509250929050565b600082825260208201905092915050565b7f496e73756666696369656e74206f757470757400000000000000000000000000600082015250565b600061075e601383610717565b915061076982610728565b602082019050919050565b6000602082019050818103600083015261078d81610751565b9050919050565b600061079f8261063d565b9050919050565b6107af81610794565b82525050565b60006060820190506107ca60008301866107a6565b6107d760208301856107a6565b6107e46040830184610613565b949350505050565b60008115159050919050565b610801816107ec565b811461080c57600080fd5b50565b60008151905061081e816107f8565b92915050565b60006020828403121561083a57610839610558565b5b60006108488482850161080f565b91505092915050565b600060408201905061086660008301856107a6565b6108736020830184610613565b9392505050565b7f4e487b7100000000000000000000000000000000000000000000000000000000600052601160045260246000fd5b60006108b48261055d565b91506108bf8361055d565b92508282019050808211156108d7576108d661087a565b5b92915050565b60006108e88261055d565b91506108f38361055d565b925082820390508181111561090b5761090a61087a565b5b92915050565b600061091c8261055d565b91506109278361055d565b92508282026109358161055d565b9150828204841483151761094c5761094b61087a565b5b5092915050565b7f4e487b7100000000000000000000000000000000000000000000000000000000600052601260045260246000fd5b600061098d8261055d565b91506109988361055d565b9250826109a8576109a7610953565b5b82820490509291505056fea26469706673582212208e19f29c64abd5ffb92260af8ae062d21f6f8f518e23d37dd8a1e03313ddc9b264736f6c634300081c0033",
  "linkReferences": {},
  "deployedLinkReferences": {}
}